{
  "contractName": "PagesShop",
  "abi": [
    {
      "inputs": [],
      "name": "countFunders",
      "outputs": [
        {
          "internalType": "uint256",
          "name": "",
          "type": "uint256"
        }
      ],
      "stateMutability": "view",
      "type": "function",
      "constant": true
    },
    {
      "inputs": [],
      "name": "funder",
      "outputs": [
        {
          "internalType": "address",
          "name": "",
          "type": "address"
        }
      ],
      "stateMutability": "view",
      "type": "function",
      "constant": true
    },
    {
      "inputs": [
        {
          "internalType": "uint256",
          "name": "",
          "type": "uint256"
        }
      ],
      "name": "funders",
      "outputs": [
        {
          "internalType": "address",
          "name": "",
          "type": "address"
        }
      ],
      "stateMutability": "view",
      "type": "function",
      "constant": true
    },
    {
      "inputs": [
        {
          "internalType": "uint256",
          "name": "",
          "type": "uint256"
        }
      ],
      "name": "mempers",
      "outputs": [
        {
          "internalType": "address",
          "name": "",
          "type": "address"
        }
      ],
      "stateMutability": "view",
      "type": "function",
      "constant": true
    },
    {
      "inputs": [],
      "name": "num",
      "outputs": [
        {
          "internalType": "uint256",
          "name": "",
          "type": "uint256"
        }
      ],
      "stateMutability": "view",
      "type": "function",
      "constant": true
    },
    {
      "inputs": [],
      "name": "owner",
      "outputs": [
        {
          "internalType": "address",
          "name": "",
          "type": "address"
        }
      ],
      "stateMutability": "view",
      "type": "function",
      "constant": true
    },
    {
      "inputs": [
        {
          "internalType": "uint256",
          "name": "",
          "type": "uint256"
        }
      ],
      "name": "users",
      "outputs": [
        {
          "internalType": "address",
          "name": "funder",
          "type": "address"
        },
        {
          "internalType": "uint256",
          "name": "index",
          "type": "uint256"
        }
      ],
      "stateMutability": "view",
      "type": "function",
      "constant": true
    },
    {
      "stateMutability": "payable",
      "type": "receive",
      "payable": true
    },
    {
      "inputs": [],
      "name": "emitLogger",
      "outputs": [
        {
          "internalType": "bytes32",
          "name": "",
          "type": "bytes32"
        }
      ],
      "stateMutability": "pure",
      "type": "function",
      "constant": true
    },
    {
      "inputs": [
        {
          "internalType": "address",
          "name": "newOwner",
          "type": "address"
        }
      ],
      "name": "changeOwner",
      "outputs": [],
      "stateMutability": "nonpayable",
      "type": "function"
    },
    {
      "inputs": [],
      "name": "getNum",
      "outputs": [
        {
          "internalType": "uint256",
          "name": "",
          "type": "uint256"
        }
      ],
      "stateMutability": "view",
      "type": "function",
      "constant": true
    },
    {
      "inputs": [
        {
          "internalType": "uint256",
          "name": "_num",
          "type": "uint256"
        }
      ],
      "name": "setNum",
      "outputs": [],
      "stateMutability": "nonpayable",
      "type": "function"
    },
    {
      "inputs": [],
      "name": "getFunders",
      "outputs": [
        {
          "internalType": "address[]",
          "name": "",
          "type": "address[]"
        }
      ],
      "stateMutability": "view",
      "type": "function",
      "constant": true
    },
    {
      "inputs": [],
      "name": "addFunds",
      "outputs": [],
      "stateMutability": "payable",
      "type": "function",
      "payable": true
    },
    {
      "inputs": [
        {
          "internalType": "uint256",
          "name": "amount",
          "type": "uint256"
        }
      ],
      "name": "withdraw",
      "outputs": [],
      "stateMutability": "nonpayable",
      "type": "function"
    }
  ],
  "bytecode": "0x608060405234801561001057600080fd5b50336000806101000a81548173ffffffffffffffffffffffffffffffffffffffff021916908373ffffffffffffffffffffffffffffffffffffffff1602179055506103e8600181905550610d6f806100696000396000f3fe6080604052600436106100e15760003560e01c80638da5cb5b1161007f578063cd16ecbf11610059578063cd16ecbf1461029b578063dc0d3dff146102c4578063e1f5e3eb14610301578063ea63a0441461032c576100e8565b80638da5cb5b1461023d578063a26759cb14610268578063a6f9dae114610272576100e8565b80634e70b1dc116100bb5780634e70b1dc1461017f5780635c58d5ac146101aa57806367e0badb146101d557806374bf83cd14610200576100e8565b8063041ae880146100ed5780632e1a7d4d14610118578063365b98b214610141576100e8565b366100e857005b600080fd5b3480156100f957600080fd5b50610102610357565b60405161010f91906108eb565b60405180910390f35b34801561012457600080fd5b5061013f600480360381019061013a9190610941565b61037d565b005b34801561014d57600080fd5b5061016860048036038101906101639190610941565b6104a2565b60405161017692919061097d565b60405180910390f35b34801561018b57600080fd5b506101946104f6565b6040516101a191906109a6565b60405180910390f35b3480156101b657600080fd5b506101bf6104fc565b6040516101cc91906109da565b60405180910390f35b3480156101e157600080fd5b506101ea610524565b6040516101f791906109a6565b60405180910390f35b34801561020c57600080fd5b5061022760048036038101906102229190610941565b61052e565b60405161023491906108eb565b60405180910390f35b34801561024957600080fd5b5061025261056d565b60405161025f91906108eb565b60405180910390f35b610270610591565b005b34801561027e57600080fd5b5061029960048036038101906102949190610a21565b61069c565b005b3480156102a757600080fd5b506102c260048036038101906102bd9190610941565b61076d565b005b3480156102d057600080fd5b506102eb60048036038101906102e69190610941565b610777565b6040516102f891906108eb565b60405180910390f35b34801561030d57600080fd5b506103166107aa565b60405161032391906109a6565b60405180910390f35b34801561033857600080fd5b506103416107b0565b60405161034e9190610b0c565b60405180910390f35b600260009054906101000a900473ffffffffffffffffffffffffffffffffffffffff1681565b60008054906101000a900473ffffffffffffffffffffffffffffffffffffffff1673ffffffffffffffffffffffffffffffffffffffff163373ffffffffffffffffffffffffffffffffffffffff161461040b576040517f08c379a000000000000000000000000000000000000000000000000000000000815260040161040290610bb1565b60405180910390fd5b80670de0b6b3a7640000811115610457576040517f08c379a000000000000000000000000000000000000000000000000000000000815260040161044e90610c43565b60405180910390fd5b3373ffffffffffffffffffffffffffffffffffffffff166108fc839081150290604051600060405180830381858888f1935050505015801561049d573d6000803e3d6000fd5b505050565b600581815481106104b257600080fd5b90600052602060002090600202016000915090508060000160009054906101000a900473ffffffffffffffffffffffffffffffffffffffff16908060010154905082565b60015481565b60007f48656c6c6f20776f726c64000000000000000000000000000000000000000000905090565b6000600154905090565b6003818154811061053e57600080fd5b906000526020600020016000915054906101000a900473ffffffffffffffffffffffffffffffffffffffff1681565b60008054906101000a900473ffffffffffffffffffffffffffffffffffffffff1681565b60008033905060005b600454811015610623578173ffffffffffffffffffffffffffffffffffffffff166006600083815260200190815260200160002060009054906101000a900473ffffffffffffffffffffffffffffffffffffffff1673ffffffffffffffffffffffffffffffffffffffff16141561061057600192505b808061061b90610c92565b91505061059a565b50816106985760006004600081548092919061063e90610c92565b919050559050336006600083815260200190815260200160002060006101000a81548173ffffffffffffffffffffffffffffffffffffffff021916908373ffffffffffffffffffffffffffffffffffffffff160217905550505b5050565b60008054906101000a900473ffffffffffffffffffffffffffffffffffffffff1673ffffffffffffffffffffffffffffffffffffffff163373ffffffffffffffffffffffffffffffffffffffff161461072a576040517f08c379a000000000000000000000000000000000000000000000000000000000815260040161072190610bb1565b60405180910390fd5b806000806101000a81548173ffffffffffffffffffffffffffffffffffffffff021916908373ffffffffffffffffffffffffffffffffffffffff16021790555050565b8060018190555050565b60066020528060005260406000206000915054906101000a900473ffffffffffffffffffffffffffffffffffffffff1681565b60045481565b6060600060045467ffffffffffffffff8111156107d0576107cf610cdb565b5b6040519080825280602002602001820160405280156107fe5781602001602082028036833780820191505090505b50905060005b6004548110156108a2576006600082815260200190815260200160002060009054906101000a900473ffffffffffffffffffffffffffffffffffffffff1682828151811061085557610854610d0a565b5b602002602001019073ffffffffffffffffffffffffffffffffffffffff16908173ffffffffffffffffffffffffffffffffffffffff1681525050808061089a90610c92565b915050610804565b508091505090565b600073ffffffffffffffffffffffffffffffffffffffff82169050919050565b60006108d5826108aa565b9050919050565b6108e5816108ca565b82525050565b600060208201905061090060008301846108dc565b92915050565b600080fd5b6000819050919050565b61091e8161090b565b811461092957600080fd5b50565b60008135905061093b81610915565b92915050565b60006020828403121561095757610956610906565b5b60006109658482850161092c565b91505092915050565b6109778161090b565b82525050565b600060408201905061099260008301856108dc565b61099f602083018461096e565b9392505050565b60006020820190506109bb600083018461096e565b92915050565b6000819050919050565b6109d4816109c1565b82525050565b60006020820190506109ef60008301846109cb565b92915050565b6109fe816108ca565b8114610a0957600080fd5b50565b600081359050610a1b816109f5565b92915050565b600060208284031215610a3757610a36610906565b5b6000610a4584828501610a0c565b91505092915050565b600081519050919050565b600082825260208201905092915050565b6000819050602082019050919050565b610a83816108ca565b82525050565b6000610a958383610a7a565b60208301905092915050565b6000602082019050919050565b6000610ab982610a4e565b610ac38185610a59565b9350610ace83610a6a565b8060005b83811015610aff578151610ae68882610a89565b9750610af183610aa1565b925050600181019050610ad2565b5085935050505092915050565b60006020820190508181036000830152610b268184610aae565b905092915050565b600082825260208201905092915050565b7f4f6e6c79204f776e65722063616e6e2061636365737320746869732066756e6360008201527f74696f6e20746f00000000000000000000000000000000000000000000000000602082015250565b6000610b9b602783610b2e565b9150610ba682610b3f565b604082019050919050565b60006020820190508181036000830152610bca81610b8e565b9050919050565b7f63616e206e6f74207769746864726177206d6f7265207468652031204574686560008201527f722e000000000000000000000000000000000000000000000000000000000000602082015250565b6000610c2d602283610b2e565b9150610c3882610bd1565b604082019050919050565b60006020820190508181036000830152610c5c81610c20565b9050919050565b7f4e487b7100000000000000000000000000000000000000000000000000000000600052601160045260246000fd5b6000610c9d8261090b565b91507fffffffffffffffffffffffffffffffffffffffffffffffffffffffffffffffff821415610cd057610ccf610c63565b5b600182019050919050565b7f4e487b7100000000000000000000000000000000000000000000000000000000600052604160045260246000fd5b7f4e487b7100000000000000000000000000000000000000000000000000000000600052603260045260246000fdfea26469706673582212207ade93494a33f4bf55b8dbcbd7773a1bed644fbb5e34516859df61bde078504e64736f6c634300080a0033",
  "immutableReferences": {},
  "source": "\n// SPDX-License-Identifier: MIT\npragma solidity >=0.4.22 <0.9.0;\n\nimport \"./Owned.sol\";\nimport \"./Logger.sol\";\nimport \"./IPagesShop.sol\";\n\ncontract PagesShop is Owned, Logger, IPagesShop{\n\n    // [External, public] - can every one send tx ETH\n    // [pure, view] - readonly, no Gas feed.\n\n    // [payable] can every one send tx ETH\n    // [receive], spical function to receive ETH\n\n\n    address public funder;\n    address[] public mempers;\n    uint public countFunders;\n\n    struct EntityUsers {\n        address funder;\n        uint index;\n    }\n\n    EntityUsers[] public users;\n\n\n    mapping(uint => address) public funders;\n\n\n    // modifier, check only Owner access.\n    modifier onlyOwner{\n\n        require(\n            msg.sender == owner,\n            \"Only Owner cann access this function to\"\n        );\n\n        // alse, continue the executing.\n        _;\n    }\n    \n    // modifier with paramiter, withdraw use case.\n    modifier withdrawAmount (uint amount){\n\n        require(\n            amount <= 1000000000000000000,\n            \"can not withdraw more the 1 Ether.\"\n        );\n\n        // alse, continue the executing.\n        _;\n    }\n\n    function emitLogger()external pure override virtual returns(bytes32){\n        return \"Hello world\";\n    }\n    // this function is spical, colled when reseive Eth, it dont have to call the name function to make txs.\n    receive () external payable{\n        // reseive ETH from ather Account or ather Contracts\n    }\n\n    // change owner sheep the Contract within the Admin.\n    function changeOwner(address newOwner) external onlyOwner {\n        owner = newOwner;\n    }\n\n    function getNum() override external view returns(uint) {\n        return num;\n    }\n\n    function setNum(uint _num) external override{\n        num = _num;\n    }\n\n\n    function getFunders() external view returns(address[] memory){\n\n        address[] memory _funders = new address[](countFunders);\n\n        \n        for(uint i = 0; i < countFunders; i++){\n\n            _funders[i] = funders[i];\n\n        }\n\n        return _funders;\n\n    }\n\n    function addFunds() override external payable{\n\n        bool isEntity = false;\n\n        address sender = msg.sender;\n\n        for(uint i = 0; i < countFunders; i++){\n\n            if(funders[i] == sender){\n\n                isEntity = true;\n\n            }\n\n        }\n\n        if(!isEntity){\n\n            uint index = countFunders++;\n            funders[index] = msg.sender;\n        }\n\n    }\n\n\n\n    function withdraw(uint amount) override external onlyOwner withdrawAmount(amount) {\n        payable(msg.sender).transfer(amount);\n    }\n}\n\n// const instance = await PagesShop.deployed()\n// instance.addFunds({from: accounts[2], value:\"2000000000000000000\"})\n// instance.addFunds({from: accounts[3], value:\"2000000000000000000\"})\n// instance.owner()\n// instance.funders(0)\n// instance.getFunders()\n// instance.withdrawBalance(\"100000000000000000\", {from: accounts[3]}) // error, onlyowner\n// instance.withdrawBalance(\"100000000000000000\", {from: accounts[0]}) // success, onlyowner\n// instance.withdrawBalance(\"2000000000000000000\") // error, can not withdraw more then 1 eth",
  "sourcePath": "/Users/alhamou/projects/course/solidity-udemy-course/contracts/PagesShop.sol",
  "compiler": {
    "name": "solc",
    "version": "0.8.10+commit.fc410830.Emscripten.clang"
  },
  "schemaVersion": "3.4.4",
  "updatedAt": "2022-01-12T20:36:40.581Z",
  "networkType": "ethereum",
  "devdoc": {
    "kind": "dev",
    "methods": {},
    "version": 1
  },
  "userdoc": {
    "kind": "user",
    "methods": {},
    "version": 1
  }
}